:020000040800F2
:100000000010002075320008BD320008BD32000823
:10001000BD320008BD320008BD32000800000000FB
:10002000000000000000000000000000BD320008D9
:10003000BD32000800000000BD320008BD320008DB
:1000400000000000000000000000000000000000B0
:1000500000000000000000000000000000000000A0
:100060000000000000000000000000000000000090
:100070000000000000000000000000000000000080
:100080000000000000000000000000000000000070
:100090000000000000000000000000000000000060
:1000A0000000000000000000000000000000000050
:1000B0000000000000000000000000000000000040
:1000C0000000000000000000000000000000000030
:1000D0000000000000000000000000000000000020
:1000E0000000000000000000000000000000000010
:1000F0000000000000000000000000000000000000
:1001000000000000000000000000000000000000EF
:1001100000000000000000000000000000000000DF
:1001200000000000000000000000000000000000CF
:1001300000000000000000000000000000000000BF
:1001400000000000000000000000000000000000AF
:10015000000000000000000000000000000000009F
:10016000000000000000000000000000000000008F
:10017000000000000000000000000000000000007F
:08018000000000000000000077
:100188000448054B10B5834203D0044B002B00D024
:10019800984710BD6800002068000020000000009B
:1001A80006480749091A8B10C90FC91810B5491014
:1001B80003D0044B002B00D0984710BD68000020E6
:1001C800680000200000000010B5074C2378002BC1
:1001D80009D1FFF7D5FF054B002B02D0044800E0FA
:1001E80000BF0123237010BD68000020000000003C
:1001F800C0320008054B10B5002B03D00449054850
:1002080000E000BFFFF7CCFF10BDC04600000000B3
:100218006C000020C032000802B471464908490049
:10022800095C49008E4402BC7047C046002243085E
:100238008B4274D303098B425FD3030A8B4244D3A6
:10024800030B8B4228D3030C8B420DD3FF220902E8
:1002580012BA030C8B4202D31212090265D0030BA7
:100268008B4219D300E0090AC30B8B4201D3CB039D
:10027800C01A5241830B8B4201D38B03C01A5241DF
:10028800430B8B4201D34B03C01A5241030B8B42E1
:1002980001D30B03C01A5241C30A8B4201D3CB02CC
:1002A800C01A5241830A8B4201D38B02C01A5241B1
:1002B800430A8B4201D34B02C01A5241030A8B42B4
:1002C80001D30B02C01A5241CDD2C3098B4201D3CC
:1002D800CB01C01A524183098B4201D38B01C01A4A
:1002E800524143098B4201D34B01C01A52410309C1
:1002F8008B4201D30B01C01A5241C3088B4201D370
:10030800CB00C01A524183088B4201D38B00C01A1C
:10031800524143088B4201D34B00C01A5241411A43
:1003280000D20146524110467047FFE701B5002050
:1003380000F0F0F802BDC0460029F7D076E7704714
:1003480003460B437FD4002243088B4274D303092E
:100358008B425FD3030A8B4244D3030B8B4228D3CF
:10036800030C8B420DD3FF22090212BA030C8B42F5
:1003780002D31212090265D0030B8B4219D300E095
:10038800090AC30B8B4201D3CB03C01A5241830B1A
:100398008B4201D38B03C01A5241430B8B4201D3CA
:1003A8004B03C01A5241030B8B4201D30B03C01AF3
:1003B8005241C30A8B4201D3CB02C01A5241830A6D
:1003C8008B4201D38B02C01A5241430A8B4201D39C
:1003D8004B02C01A5241030A8B4201D30B02C01AC6
:1003E8005241CDD2C3098B4201D3CB01C01A52412D
:1003F80083098B4201D38B01C01A524143098B42B6
:1004080001D34B01C01A524103098B4201D30B019E
:10041800C01A5241C3088B4201D3CB00C01A5241C3
:1004280083088B4201D38B00C01A524143088B4288
:1004380001D34B00C01A5241411A00D20146524121
:10044800104670475DE0CA0F00D04942031000D340
:100458004042534000229C4603098B422DD3030A95
:100468008B4212D3FC22890112BA030A8B420CD3A5
:10047800890192118B4208D3890192118B4204D3CE
:1004880089013AD0921100E08909C3098B4201D34E
:10049800CB01C01A524183098B4201D38B01C01A88
:1004A800524143098B4201D34B01C01A52410309FF
:1004B8008B4201D30B01C01A5241C3088B4201D3AE
:1004C800CB00C01A524183088B4201D38B00C01A5B
:1004D8005241D9D243088B4201D34B00C01A524132
:1004E800411A00D20146634652415B10104601D3BF
:1004F8004042002B00D54942704763465B1000D349
:10050800404201B5002000F005F802BD0029F8D0EE
:1005180016E770477047C04670B50C4D0C4E761BF9
:10052800B61005D0002408CD01349847A642FAD168
:1005380002F0C2FE074D084E761BB61005D0002407
:1005480008CD01349847A642FAD170BDB0350008ED
:10055800B0350008B0350008B4350008F0B5C64617
:1005680000B50F2A41D903270D003E0005430C00B2
:1005780003002E402F423DD11500103D2D09A846FD
:100588002D01AC46844427681D001F6067685F60C2
:10059800A7689F60E7681034DF6010336545F2D1C3
:1005A80045460F230C2401352D01491913404519DF
:1005B800144222D08C59AC5104369C1B032CF9D818
:1005C800043B9B0801339B00ED18C91803231A400C
:1005D800561E002A06D00023CC5C1A00EC540133C6
:1005E8009642F9D180BCB846F0BD0500561E002AD7
:1005F800F1D1F7E70500561EEDE71A00F6E7C04609
:10060800F0B50500830749D0541E002A45D00300E1
:100618000326CAB202E00135013C3ED301332A70F9
:100628003342F8D1032C30D9FF220A401502154372
:100638002A0415430F2C34D92700103F3F093E01E7
:10064800B4461E001A001036664415605560956061
:10065800D5601032B242F8D101373F01DB190F27BC
:100668000C22274022403C00002A0ED03E1FB6082C
:10067800B400A4461A001C1D644420C2A242FCD146
:1006880003240136B6009B193C40002C05D0C9B2A2
:100698001C19197001339C42FBD1F0BD03001400F2
:1006A800C0E72700E2E7C046114B70B51C6805009B
:1006B800A36B002B03D000221D615A6170BD182066
:1006C80000F0AAF8031EA0630CD00A4A00210260B9
:1006D800094A4260094A82600B228281012018611E
:1006E8005961E8E700224221054B064800F050F81E
:1006F800040000200E33CDAB34126DE6ECDE0500AD
:10070800E834000800350008184B70B51D68AC6B5C
:10071800002C0ED020696169154A164B01F042FD84
:100728000122002312184B415800400822616361DE
:1007380070BD182000F070F8041EA8630FD00E4B8F
:10074800012203600D4B43600D4B83600B238381B3
:1007580000230261436107480A4A064BE6E7002284
:100768004E21094B094800F013F8C0460400002048
:100778002D7F954C2DF451580E33CDAB34126DE6C8
:10078800ECDE05002E7F954CE834000800350008A3
:1007980030B514001A000A4B05001B6885B0D868EC
:1007A800002C09D0074B019300912B0006490294B5
:1007B80000F020F800F098FD044B1C00F3E7C04659
:1007C800040000203435000844350008403500088E
:1007D800130010B50022FFF7DBFFC0460CB400B5CC
:1007E80083B004AB04CB019300F024F903B008BC38
:1007F80002B018470EB400B582B003AB010005483B
:1008080004CB0068019300F015F902B008BC03B0EE
:100818001847C0460400002010B5034B01001868B3
:1008280000F06EF810BDC0460400002010B5034B60
:100838000100186800F004F810BDC046040000204C
:1008480070B50500002915D00C1F2368002B23DB89
:10085800280001F059FA294A1368002B05D0A34251
:100868000BD92168601883422DD06360280014607A
:1008780001F04CFA70BDA34210D81A005B68002B37
:10088800F9D1106811188C4219D030D363605460C4
:10089800280001F03BFAEDE7E418D9E71168501891
:1008A800A04217D023D8216860188342EED1186877
:1008B8005B6884466144216063605460E8E72368AC
:1008C80018181060E4E718685B6884466144216082
:1008D8006360CBE720680918501811608342D7D1AC
:1008E80018685B688446614411605360D0E70C2344
:1008F80028002B6001F00AFABCE7C046FC01002082
:10090800F8B50323CD1C9D43083506000C2D27D2CE
:100918000C25A94226D8300001F0F6F9284F3A688C
:10092800002A27D0140004E063682200002B21D09D
:100938001C0023685B1BF7D40B2B17D86368944201
:1009480035D05360300001F0E1F9200007220B3068
:10095800231D9043C21A984207D01B1AA35004E0E3
:10096800002DD6DA0C2300203360F8BD2360E4188C
:100978002560E7E77B68002B1BD02900300000F0DA
:10098800A5FB431C0CD00323C41C9C43A04205D0E8
:10099800211A300000F09AFB431C01D02560D1E7F2
:1009A8000C233000336001F0B1F90020DDE73B6033
:1009B800C8E70021300000F089FB7860DDE7C04619
:1009C800FC010020936810B5013B9360002B04DA0A
:1009D8009469A34207DB0A2905D01368581C1060E4
:1009E8000800197010BD00F083FBFBE7F8B505009F
:1009F8000E00002B0DD01400D71802E00134BC42C1
:100A080007D0320028002178FFF7DCFF431CF5D11E
:100A1800F8BD0020FCE7C046936810B51400002B11
:100A280002D10020536010BD00F09AFE0023A3609D
:100A38006360F8E7F0B5DE4657464E464546E0B5F2
:100A480083468A4691461C009FB0002803D08369DC
:100A5800002B00D1ABE09E4B9A4500D1ADE09D4BF9
:100A68009A4500D1BBE09C4B9A4500D12BE15346F7
:100A78009B891B0700D4A8E053461B69002B00D1B3
:100A8800A3E0002306AD6B6120336B761033AB76A1
:100A98002F3B98464B461978904E059400297AD0FA
:100AA8004C460B0004E063780134002B00D19AE037
:100AB800252BF8D14B46E31A02934C4500D097E01A
:100AC8002378002B67D00122002352426A60443207
:100AD80001342B60EB60AB60AB54AB6506E043467A
:100AE800801B83402A68013413432B6005223000A1
:100AF800217801F079F80028F1D12B68DA0602D5BF
:100B080043222021A9541A0702D543222B21A95494
:100B180021782A2900D07DE0059A111D12680591D7
:100B2800002A00DAABE0EA606178671C2E2900D160
:100B380084E06B4C0322200001F056F8002806D010
:100B48004023001B83402A68013713432B60397800
:100B58007B1C062263489946297601F045F800284F
:100B680000D192E0604B002B00D178E005AB0093F8
:100B78005246290058465D4B00E000BF0390039B96
:100B8800013308D0039A6B69944663446B614B4602
:100B98001978002984D153469B895B061CD468695F
:100BA8001FB0F0BCBB46B246A946A046F0BD00F057
:100BB800AFFD474B9A4500D051E75B465B689A46C4
:100BC80053469B891B0700D556E75146584600F007
:100BD80005FB002800D154E701204042E0E75B46CE
:100BE8009B689A4643E74B46E31A02934C45D2D09A
:100BF8005B460027A3461C0005E0029B0137BB4269
:100C080034D94B46D95D52462000FFF7DBFE431C22
:100C1800F3D1C0E70800303809280BD8EB689A00F0
:100C2800D31861785B001B18080030380134092894
:100C3800F5D9EB6027002E2900D07AE779782A29A0
:100C48002DD1059BB81C1A1D1B6805926B60002BE3
:100C580002DA01235B426B60B978070069E7072273
:100C6800059B07339343083305938BE723006A6991
:100C78005C4694469B46029B63446B6120E7524264
:100C8800EA60022213432B604EE705AB00935246FD
:100C980029005846154B00F0D5F803906FE7080077
:100CA8000023303801376B60092800D941E79A00E2
:100CB800D31879785B001B180800303801370928E9
:100CC800F5D96B6035E75B46DB689A46CFE6C046E8
:100CD800B4330008943300087433000874350008EE
:100CE8007C3500088035000800000000F509000880
:100CF80010B504001300034A10680A002100FFF72A
:100D080099FE10BD04000020F8B557464E46DE4651
:100D18004546E0B51F000A9B924699460A698B68CA
:100D280006000C009A4200DA1A0053461A60432360
:100D3800E35C002B02D0514601320A6021688A0622
:100D48005ED55346524606201B680233136021685D
:100D58000A00084209D1E268D31A192293460022F0
:100D6800A34490460A00002B42DC4323E35C591E4F
:100D78008B4192060AD53020E1184331087045218D
:100D88005A1C615CA21843320233117022003900E8
:100D980030004332C847431C19D006232268134049
:100DA800042B33D0A368226993423DDD0021884695
:100DB8009B1A984400251A3402E00135454533DA78
:100DC8000123220039003000C847431CF5D1012017
:100DD8004042F0BCBB46B246A946A046F8BD012336
:100DE8009C465346E2681B68E044D51A454520DD19
:100DF80001235A4639003000C847431CEFD1E6E7C3
:100E080006220A4212D05A1E9341BFE75346196878
:100E1800E3682269591ACB43DB170B409846A3684D
:100E28009342C5DC0029C5DC0020D2E753461B6885
:100E380091E743232268E35C591E8B4192069AD4BA
:100E4800A4E7C046F0B54E46994643239C4657460C
:100E58004546DE468C446346E0B587B003930C00F4
:100E6800097E90460700109A002914D00B00583BC1
:100E7800DBB2202B4BD892489B00C3589F4623686F
:100E8800190602D45B0600D501E11368191D11602B
:100E98001B6862691A600023039D23614B46210089
:100EA80000933800434605AAFFF72EFF431C1FD0C6
:100EB80023692A0041463800C847431C18D02368D4
:100EC8009B071ED5E36805981A1A002A1BDD260021
:100ED8000025193605E0E368059801351A1AAA4273
:100EE80011DD0123320041463800C847431CF2D1C6
:100EF8000120404207B0F0BCBB46B246A946A04616
:100F0800F0BDE36805989842F4DA1800F2E7422346
:100F18002500E154413B4235236143230022E2543A
:100F2800BCE72368190602D4590600D5BBE011684E
:100F3800081D10600A681600002A75DB614B9B4685
:100F48000A239A464DE02368180602D45B0600D5AA
:100F5800A4E01368181D10601E685A4B9B466F2941
:100F680000D1A7E00A239A4638E013682500191D26
:100F780011601A684223E254413B42352361CCE7B1
:100F88001368191D11601D6800212800626800F0AF
:100F98002BFE002800D190E0401B60602061BCE778
:100FA800202321680B43236045217820605446495B
:100FB8008B46190631D459062FD51168081D0E889D
:100FC8001060DA0702D520221343236010239A46C3
:100FD800002E03D1226810339A4322604323002253
:100FE800E2546368A360002B48DB04222168914324
:100FF8002160002E27D1002B42D1039D5346082B98
:1010080031D0039B5B1B236148E745235821E154FA
:1010180023682C498B461906CDD51168081D106028
:101028000E68CEE72368BFE743222D21A1546268EA
:101038007642A260002A02DB042293432360214BFC
:101048009B460A239A46039D30005146FFF774F9E0
:101058005B465B5C013D2B70330006005345F3D2C1
:101068005346082BCDD12368DB07CAD563682269AC
:101078009342C6DC3023013D2B70C2E7002EE2D13B
:101088005B4625001A7842234235E254B6E71368D6
:101098006169181D10601B681980FCE61368181D2B
:1010A8001E88106059E71168081D106000228E5EC6
:1010B800320041E708239A4690E7606820612CE7F0
:1010C800F0320008883500089C350008002370B508
:1010D800064D040008002B6001F0CAF8431C00D03C
:1010E80070BD2B68002BFBD02360F9E704020020B9
:1010F800F8B505000E001400002802D08369002B03
:1011080029D02D4B9C422BD02C4B9C4246D02C4BAB
:101118009C424ED0A369A360A3891B0726D52369E7
:10112800002B23D0FF212268F7B20E406169D31A41
:1011380099422ADD0133A1680139A160511C21605F
:10114800177062699A422BD0A389DB0701D50A2E52
:1011580026D03000F8BD00F0DBFA174B9C42D3D103
:101168006C68A369A360A3891B07D8D42100280051
:1011780000F034F8002819D1FF2123692268F7B25A
:101188000E406169D31A9942D4DC2100280000F08E
:1011980041F900280AD101232268CCE7AC68B9E7F5
:1011A8002100280000F036F90028D2D00126764226
:1011B800CFE7EC68AEE7C046B433000894330008C4
:1011C80074330008030010B50A00034908681900C1
:1011D800FFF78EFF10BDC046040000203E4B70B5DF
:1011E8001D6806000C00002D02D0AB69002B1BD037
:1011F8003A4B9C421ED03A4B9C424CD0394B9C42B5
:1012080060D00C23E25EA389190719D5216900294A
:1012180021D0D80730D50020A06060694042A06185
:101228000020002930D070BD280000F071FA2B4B47
:101238009C42E0D16C680C23E25EA3891907E5D4CF
:10124800D90641D55B0728D4216908231A43A2810E
:1012580093B20029DDD1A02080258000AD00184080
:10126800A842D6D02100300000F038FC0C23E25E02
:10127800A3892169D807CED400209D0700D46069CE
:10128800A06000200029CED11B06CCD540231A43EC
:10129800A2810138C7E7AC68B3E7616B00290AD0BF
:1012A80023004433994204D03000FFF7C9FA0C23D5
:1012B800E25E0023636324239A4300232169636069
:1012C8002160C2E7EC689CE70923336040230120D2
:1012D8001A43A2814042A6E704000020B433000864
:1012E8009433000874330008062010B500F0CEFDD2
:1012F800012000F0D3FFC046F0B5C64600B58B8983
:1013080080460C001A0743D44A68002A61DDE56A62
:10131800002D39D042464146166800220A60DA0498
:101328005BD4012300224046216AA847431C5FD0B2
:10133800A389E56A5B0706D56368C01A636B002B4F
:1013480001D0236CC01A00230200216A4046A84736
:10135800431C44D143461B68002B40D01D2B01D0B1
:10136800162B4DD100236360236923604346616BCC
:101378001E60002908D023004433994202D0404619
:10138800FFF75EFA00236363002080BCB846F0BD17
:101398000E69002EF8D00A680E60951B00229B0784
:1013A80000D14A69A260002D04DCEDE736182D1A39
:1013B800002DE9DD2B0032004046216AA76AB847B4
:1013C8000028F3DC40220120A38940421343A38173
:1013D800DBE70A6C002A9ADCD6E7606DAAE70023EF
:1013E800636023692360A389DB04BFD56065BDE71B
:1013F80043461B68002B9BD01D2B06D0162B04D010
:101408004022A3891343A381BFE7434600201E60FF
:10141800BBE7C0460B6970B505000C00002B16D061
:10142800002802D08369002B15D00E4B9C4210D0A7
:101438000D4B9C4212D00D4B9C4211D00C22A35E46
:10144800002B04D021002800FFF756FF00E0002001
:1014580070BD6C68F2E700F05BF9E6E7AC68EDE7B1
:10146800EC68EBE7B43300089433000874330008E1
:1014780070B5041E29D00369002B1DD0184B1D68B8
:10148800002D02D0AB69002B18D0164B9C420ED011
:10149800154B9C421FD0154B9C421ED00C22A35EBC
:1014A800002B09D021002800FFF726FF70BD6C68CB
:1014B8000C22A35E002BF5D10020F7E7280000F0EE
:1014C80027F9084B9C42E3D1F1E7094B0949186811
:1014D80000F0E0FAEAE7AC68E0E7EC68DEE7C0466F
:1014E80004000020B4330008943300087433000863
:1014F800EC3200081D1400080020704710B502499E
:1015080000F0C8FA10BDC0461D140008002070473E
:1015180070B568254A1E55430E0029007431FFF73F
:10152800EFF9041E09D000232A00036046600C303E
:101538000021A0606832FFF763F8200070BDC04644
:10154800F0B5C646274B07001E6800B5B369002BE7
:101558002AD00423984648367368B468013B03D5FB
:101568001DE06834013B1AD30C22A55E002DF8D18A
:1015780020001D4B08220021656625606560A56076
:10158800E36025616561A5615C30FFF739F8656343
:10159800A563A564E564200080BCB846F0BD356845
:1015A800002D05D02E00D7E7300000F01FF8D0E757
:1015B800D62138004900FFF7A3F9041E0DD0434691
:1015C800D0220560250043600C300021A060520045
:1015D800FFF716F834602E00BEE70C2330603B603E
:1015E800D9E7C046EC3200080100FFFFF0B5D64647
:1015F8004F464646384BC0B5836200238364C364B4
:101608000365364B82B01B6805000193984260D091
:101618002800FFF795FF68602800FFF791FFA86092
:101628002800FFF78DFF6E680024E860042330006F
:10163800746634607460B460F36034617461B4617A
:10164800082200215C30FEF7DBFF254B254F9A4628
:101658007362254B37639946B362244B3662F36253
:10166800AE6898463000224B746634607460B4608B
:10167800F36034617461B461082200215C30FEF7C4
:10168800BFFF534673624B46B36243463763F36208
:101698003662EE68174B3000F3600822002174664A
:1016A80034607460B46034617461B4615C30FEF7B6
:1016B800A7FF534673624B46B3624346F362012366
:1016C80036623763AB6102B0E0BCBA46B146A846A1
:1016D800F0BD012383619BE705150008EC32000883
:1016E8000D200008A52000083920000879200008EE
:1016F800090001001200020010B5034B03491868E5
:1017080000F0C8F910BDC046EC3200081D140008EE
:10171800836910B5002B01D1FFF768FF10BDC046E3
:101728007047C0467047C0467047C0467047C046BD
:1017380010B5034B0349186800F08CF910BDC0467A
:10174800040000200115000810B5034B0349186870
:1017580000F080F910BDC0460400002015150008EF
:10176800F0B5DE46454657464E46E0B59368834693
:101778000C00904683B0002B23D08B891A0728D5FC
:101788000A69002A25D0424616689A072DD50027EF
:10179800AC4B00259946BA46002D58D02B004D4534
:1017A80000D9A84B52465846216AA76AB84700286C
:1017B80058DD43469B6882442D1A181A43469860A0
:1017C800EAD1002003B0F0BCBB46B246A946A04609
:1017D800F0BD21005846FFF701FD002800D02DE19B
:1017E8004246A38916689A07D1D4DA0742D4002260
:1017F80000279146002F25D080229200A568134229
:1018080000D180E0AA46BD4200D9AFE09022D200C4
:10181800134200D0BBE020685246494600F01EFA49
:10182800A3685D1BA5603D0000272368534423601F
:1018380043469B68A9445D1B43469D60C1D0A3896C
:10184800002FD9D13268776891460836D2E73368D5
:1018580075689A4608369FE721000198FFF7DAFD78
:1018680000282FD00C22A35E402201201343A3811D
:101878004042A7E700230022B14600271E005B462E
:10188800002092460193002F27D000282FD0330044
:10189800BB469F4200D99B462068226963699042F3
:1018A80004D9A2689D18AB4500DD9EE05B4561DC6C
:1018B800A56A5246216A0198A847051ED2DD012073
:1018C800761BC9D043469B68AA447F1B5D1B4346D1
:1018D8009D6000D175E7002FD7D14B461B689A460B
:1018E8004B465F6808239C46E144002FF5D03A0038
:1018F8000A21504600F078F9002800D195E05346B7
:101908000130C61AC3E720682369984216D863696C
:101918009A46BB4212D84C4B38009F4200D94B48DC
:101928005146FEF70DFD5346A56A43434A465846BD
:10193800216AA847051E95DD7F1B79E7BD4200D9BE
:101948003D002A00494600F089F9A36822685B1B1C
:101958005219A3602260002BEED121005846FFF7F0
:1019680059FD002800D07DE77F1B61E73D00BA469E
:10197800206851E75A46514600F070F95A46A36864
:101988005D469B1AA36023685B44236097E7606900
:1019980022682169551A42001218D00F8218681C53
:1019A8005210C01992460195904201D98246020010
:1019B8005B0529D511005846FEF7A2FF051E37D052
:1019C800019A2169FEF7CAFDA389214A13408022A2
:1019D8001343A3815246019B2561E818D31A3D00A1
:1019E800BA4620606261A36016E751462A0000F0FB
:1019F80035F9236821005B1901982360FFF70AFD78
:101A0800002800D15BE72DE7584600F081F9051E54
:101A1800E0D121695846FEF713FF80225946A38971
:101A28009343743A1BB20A601EE77B1C1E002FE723
:101A38000C235A4613600C22A35E15E7012040428E
:101A4800C0E6C04600FCFF7FFEFFFF7FFFFFFF7F71
:101A58007FFBFFFFF0B5C6464830884607000026E2
:101A680000B57B68BC685D1E0CD4A389012B06D920
:101A78000E22A35E013302D02000C047064368341B
:101A8800013DF2D23F68002FEBD1300080BCB84650
:101A9800F0BDC046F8B54746CE4680B5070080463B
:101AA8008946002648377B68BC685D1E0DD4A3892B
:101AB800012B07D90E22A35E013303D02100404633
:101AC800C84706436834013DF1D23F68002FEAD188
:101AD8003000C0BCB946B046F8BDC046F0B58B89E9
:101AE80006000C0097B09A0707D5230047332360F8
:101AF80023610123636117B0F0BD0E22895E0029BE
:101B08002FDB6A4600F0F6FA002829DBF023019D56
:101B18001B021D401D4B9C4665446B425D4180275E
:101B2800FF0039003000FEF7EBFE002823D08021AB
:101B3800174AB262A28920600A43A28120616761C4
:101B4800002DD8D030000E23E15E00F0E7FA00281F
:101B5800D1D00322A389934301221343A381CAE767
:101B6800A389002540271B06D9D539003000FEF788
:101B7800C7FE0028DBD10C22A35E9A05BBD4032242
:101B8800934302221343A381AFE7C04600E0FFFF5F
:101B98000515000870B50C001D000E23C95E16005F
:101BA80096B0002914DB6A4600F0A4FA00280FDB7F
:101BB800F022019B120213400A4A944663445A4297
:101BC80053412B608023DB003360002016B070BDCA
:101BD8000C22A35E00222A601B06F3D54023336043
:101BE800F3E7C04600E0FFFF70B5CCB283070DD025
:101BF800531E002A0FD0032504E00130284206D0E6
:101C0800013B08D30278A242F7D170BD1300032B21
:101C18000CD8002B01D10020F7E7C31802E00130EF
:101C28008342F8D00278A242F9D1EEE7FF25294095
:101C38000D0229430D04074E0D43026806496A4008
:101C4800511891433142E8D1043B0430032BF4D8B6
:101C5800DFE7C04680808080FFFEFEFEF0B5884248
:101C68000AD98B18984207D2531E002A03D0CA5C9F
:101C7800C254013BFBD2F0BD0F2A0BD80500561EFB
:101C8800002AF8D00023CC5C1A00EC5401339642A9
:101C9800F9D1F0E703270D003E0005430C000300CF
:101CA8002E402F422BD11500103D2D09AC462F0197
:101CB8003F1825681D6065685D60A5689D60E568DA
:101CC8001034DD601D001033BD42F2D165460F238C
:101CD8000C2401352D01491913404519144211D01E
:101CE8008C59AC5104369C1B032CF9D8043B9B0837
:101CF80001339B00ED18C91803231A40BFE70500FC
:101D0800561EBFE71A00BAE77047C0467047C0467C
:101D1800F8B506000C00150000291BD0002A15D0C4
:101D280000F022FA2700A84201D33800F8BD2900A4
:101D38003000FEF7E5FD071EF7D021002A00FEF768
:101D48000DFC21003000FEF77BFDEEE7FEF778FD85
:101D58000027EAE71100FEF7D3FD0700E5E7C046D4
:101D6800436C10B50400002B01D0002010BD802169
:101D7800FEF7C6FD6064002806D00200002380320A
:101D880008C09042FCD1F0E701204042EEE7C0468F
:101D9800F8B506000C0017001F2907D8456C002D60
:101DA80009D0A4002D1928682F60F8BD16230360F8
:101DB80001204042F9E78021FEF7A2FD051E70646C
:101DC80007D0010003000022803104C38B42FCD1FC
:101DD800E7E701204042E8E770B505000C001F293D
:101DE80020D8436C002B0ED08A009B181A68002A52
:101DF80009D0012A14D0511C0ED0002120001960EE
:101E08009047002070BD280000F0F8F8220001007B
:101E1800280000F0DFF8F5E7162303600120F1E75A
:101E28000020EFE71623036001204042EAE7C0469E
:101E380070B504000D001F2925D8426C002A10D067
:101E4800A80012181368002B09D0591C19D0012BAF
:101E580015D00021280011609847002070BD01208E
:101E6800FCE78021FEF74CFD021E60640BD00400E5
:101E780003000020803401C3A342FCD1E0E7032023
:101E8800ECE70220EAE701204042E7E7154B70B58E
:101E980004001D681F281FD86B6C002B0DD0820012
:101EA8009B181A68002A08D0012A13D0511C0DD09B
:101EB800002119609047002070BD280000F09EF8AE
:101EC80022000100280000F085F8F5E7162301201C
:101ED8002B60F1E70020EFE7162301202B6040423A
:101EE800EAE7C04604000020124B70B504000D005C
:101EF8001E681F2807D8706C002809D0A400041990
:101F08002068256070BD1623012033604042F9E740
:101F180080213000FEF7F4FC7064002807D001002F
:101F280003000022803104C39942FCD1E6E7012076
:101F38004042E7E7040000200C4B10B51C68636CB6
:101F4800002B01D0002010BD80212000FEF7D8FC16
:101F58006064002806D002000023803208C0904246
:101F6800FCD1EFE701204042EDE7C0460400002025
:101F7800174B70B505001C681F2826D8626C002A0C
:101F880010D0A80012181368002B09D0591C1AD0B9
:101F9800012B16D00021280011609847002070BD41
:101FA8000120FCE780212000FEF7AAFC021E6064E5
:101FB8000BD0040003000021803402C3A342FCD1EB
:101FC800DFE70320EBE70220E9E701204042E6E7EC
:101FD80004000020002370B5074D0400080011001C
:101FE8002B6000F02DF9431C00D070BD2B68002B2E
:101FF800FBD02360F9E7C0460402002010B500F0CA
:102008000FF910BD70B50C000E25495F00F0B6F849
:10201800002803DB636D1B18636570BDA389024A42
:102028001340A381F9E7C046FFEFFFFF0020704788
:10203800F8B50C001F000C23C95E05001600CB057F
:102048000AD40A4B320019402800A1810E23E15E10
:102058003B0000F029F8F8BD0E23E15E00220223C0
:1020680000F06EF80C23E15EEBE7C046FFEFFFFFE0
:1020780070B50C000E25495F00F062F8431C06D0CD
:102088008023A2895B011343A381606570BDA38986
:10209800014A1340A381F9E7FFEFFFFF10B50E23B4
:1020A800C95E00F015F810BD70B5040008001100F5
:1020B8001A000023054D2B6000F0E8F8431C00D0FF
:1020C80070BD2B68002BFBD02360F9E704020020C9
:1020D800002370B5064D040008002B6000F090F84E
:1020E800431C00D070BD2B68002BFBD02360F9E7A0
:1020F80004020020002370B5074D040008001100F9
:102108002B6000F085F8431C00D070BD2B68002BB5
:10211800FBD02360F9E7C04604020020002370B515
:10212800064D040008002B6000F082F8431C00D024
:1021380070BD2B68002BFBD02360F9E70402002058
:1021480070B50400080011001A000023054D2B602B
:1021580000F07EF8431C00D070BD2B68002BFBD02C
:102168002360F9E7040200200B1F1B68181F002BCF
:1021780000DB70470B58C018FBE7C04670B5040079
:10218800080011001A000023054D2B6000F068F8C4
:10219800431C00D070BD2B68002BFBD02360F9E7EF
:1021A80004020020F0B5CE46474680B507009946A0
:1021B8003B0C9C4613041B0C1D000E0061460004DA
:1021C800140C000C45434B4360436143C0182C0C6E
:1021D80020188C46834203D980235B029846C44466
:1021E800494679437243030C63442D042D0CC918E6
:1021F800000440198918C0BCB946B046F0BDC046B5
:1022080058220120014B40421A6070470402002006
:1022180058220120014B40421A60704704020020F6
:1022280058220120014B40421A60704704020020E6
:102238005822024B00201A607047C0460402002052
:1022480058220120014B40421A60704704020020C6
:1022580058220120014B40421A60704704020020B6
:1022680058220120014B40421A60704704020020A6
:10227800044A03001068002802D0C318136070478E
:102288000148FAE708020020100200205822012025
:10229800014B40421A60704704020020FEE7C04626
:1022A800002382B0054A0193019B934201D902B0F1
:1022B8007047019B01330193F6E7C046FE0F00000B
:1022C80010B504002078013400F0D2FA2378002BEE
:1022D800F8D110BD13B507220C4904006846FEF773
:1022E8003DF900F09DFA00236A46D15CE25C914218
:1022F80004D10133062BF7D1054800E00548FFF764
:10230800DFFF00F095FA002016BDC046F233000842
:10231800E3330008D433000830B585B002AD072296
:10232800124904002800FEF719F900F079FA002391
:10233800E95CE25C914212D10133062BF8D10C48DA
:1023480006E0019B01330193019B8B42F9DB0948AD
:10235800FFF7B6FF00F06CFA002005B030BDFEF7BD
:10236800D3F90549FEF7D2F80023ECE7F233000869
:10237800E3330008D43300083930000013B50722CE
:102388000E4904006846FEF7E9F800F049FA002310
:1023980019006A46E05CD25C0133424008005140B3
:1023A800062BF6D1904206D00548FFF789FF00F0CA
:1023B8003FFA002016BD0348F7E7C046F23300088D
:1023C800D4330008E333000810B500F07DF900F0BD
:1023D800A7F900F0E5F91B48FFF772FF1A48FFF765
:1023E8006FFFFFF75DFF1948FFF76AFFFFF758FF18
:1023F8001748FFF765FFFFF753FF1648FFF760FF21
:10240800FFF74EFF1448FFF75BFF1448FFF758FF2C
:102418001348FFF755FF00F00BFA00F083F810217E
:10242800104A612000F078F810210F4A622000F06D
:1024380073F8102163200D4A00F06EF800F0DCF804
:10244800FCE7C046F93300081C340008393400089A
:102458005634000873340008903400089334000898
:10246800C2340008DD220008212300088523000863
:102478000120704770B51400A31A984201DC0020AF
:102488001FE04D780B782E00303EF6B2092E0CD89E
:1024980026701D00303DEEB2092E15D823782D0187
:1024A8001D43257001340231E6E72E00413E052E1A
:1024B80002D8373D2570ECE72E00613E052E01D984
:1024C800012070BD573DF5E71D00413D052D05D89C
:1024D800373B25781B012B432370E3E71D00613D43
:1024E800052DEDD8573BF4E7F0B5094E05003468E3
:1024F80001200F2C0BDCFF2909D8064827013D5481
:10250800C019416082600373002001343460F0BD5B
:10251800840000208800002010B50023FFF7E4FFA6
:1025280010BD000010B50021074A7620FFF7F4FF20
:102538000021064A7720FFF7EFFF00217920044A9F
:10254800FFF7EAFF10BDC04679240008B12500084E
:1025580095250008F8B50D0014000F2700F088F93C
:102568006519AC4203D10A2000F082F9F8BD23783E
:10257800054E1B09F05C00F07BF9237801343B40E1
:10258800F05C00F075F9ECE7D832000807B56B4647
:10259800DA1D044B72201B6801211370FFF7DAFF64
:1025A80000200EBD840000200322114BF0B5944694
:1025B8001C6800230F4D8DB0E6B2B34209DB6146BB
:1025C80061436A467220C9B2FFF7C4FF00200DB00C
:1025D800F0BD624669465A431801475D28188F5472
:1025E8004168007B6A44013351709070DBB2E4E7C4
:1025F8008400002088000020F0B5304CA54400F08D
:102608001FF92F4B2F491A6800239A4204DC07D17F
:10261800C3239B009D44F0BD1C010C5D844241D145
:102628000127284D1C012E19337B3B421AD0002369
:102638006A46137200F004F984226B4652009B1814
:10264800187000F0FDF80A226B46FF329B181870CC
:1026580002AA380042A9FFF70DFF0028D8D16B461F
:102668001B7A736000262B195B685B00B3421BD88A
:1026780000F0E6F80A2801D00D28C9D12C196568A0
:1026880002AA280042A9FFF7F5FE0028C0D1E9B246
:10269800A36802A8984701AA107001217A20FFF7C1
:1026A80059FFB5E70133B0E700F0CAF80A28AFD000
:1026B8000D28ADD042ABF0540136D4E7F4FCFFFF4F
:1026C8008400002088000020F0B590270024012510
:1026D8000326042397B0FF05380005A9059306953E
:1026E8000794089600F046FB102305A938000593C7
:1026F80006950794089600F03DFB05230AA80B935E
:102708000A960D94139400F0C9F80723210001A834
:10271800019302950394049400F0A2FA17B0F0BD57
:10272800802170B51B4C8902626988B00A436261D6
:10273800636990200B400193019BC023DB000125B6
:1027480003260393022303A9C0050493059507955F
:10275800069600F00FFB8021A269C9010A43A26115
:10276800A3690D480B400293029B236BB3431D439F
:102778000A4B2563036096231B0243600023836092
:10278800C360036183610C33436100F05DFC08B0F2
:1027980070BDC0460010024088010020003801408A
:1027A80080201E4AF0B55169800201435161536986
:1027B80087B0034090240093012500260327009B3F
:1027C8008023E405200001A901930295039604974C
:1027D80000F0D0FA1023200001A901930295039676
:1027E800049700F0C7FA0423200001A90193029579
:1027F8000396049700F0BEFA32002000802100F012
:102808006BFB2A002000102100F066FB2A0004213F
:10281800200000F061FB07B0F0BDC0460010024088
:10282800902010B501228021C00500F055FB10BD95
:10283800902010B500228021C00500F04DFB10BD8E
:1028480037B508256B46DC1D0122322321000648D6
:1028580000F02CFC002801D120783EBD034A136A01
:102868002B431362EEE7C046880100200038014080
:1028780007B56B46D91D08700122024B024800F0CB
:102888008BFC07BD8813000088010020024B1868E4
:10289800421C1A607047C046F8010020F0B5036872
:1028A800040085B0DB072FD423689B0700D581E09F
:1028B80023681B0700D5BCE023685B0700D5DFE071
:1028C8002368DB061AD562690423B54D012A00D0B6
:1028D8004AE1696B02270B436B636B6B1A436A63AC
:1028E800FFF7D4FF06006B6B3B4200D135E1F821BE
:1028F8006A6BA3698A43DB0013436B63216A00296F
:1029080000D059E1002013E00C21A54D6A680A4067
:10291800042A06D06B680B40082B0BD16B68DB03CD
:1029280008D52B689B03BFD56368002BBCD1012059
:1029380005B0F0BD6368012B13D180232A685B02C0
:1029480013432B60FFF7A2FF80270600BF022B6806
:102958003B42A9D1FFF79AFF801B6428F7D90320CF
:10296800E6E7002B16D12B688E4A802713402B6090
:102978002B688D4ABF0213402B60FFF787FF0600C4
:102988002B683B4200D18FE7FFF780FF801B64284C
:10299800F6D9E4E7052B05D180232A68DB02134327
:1029A8002B60CAE72B687F4A13402B602B687E4A4E
:1029B8001340C6E70C227A4D6B68134206D06B6849
:1029C8001340082B10D16B68DB030DD42B689B07D1
:1029D80002D5E368012BAAD1F8212A6823698A4322
:1029E800DB0013432B6063E7E2680123002A0FD062
:1029F8002A68022713432B60FFF748FF06002B685D
:102A08003B42E9D1FFF742FF801B0228F7D9A6E72E
:102A18002A6802279A432A60FFF738FF06002B68C6
:102A28003B4200D144E7FFF731FF801B0228F6D96B
:102A380095E7E26901235A4D002A10D06A6A0227F5
:102A480013436B62FFF722FF06006B6A3B4200D01C
:102A580032E7FFF71BFF801B0228F6D97FE76A6A77
:102A680002279A436A62FFF711FF06006B6A3B422E
:102A780000D121E7FFF70AFF801B0228F6D96EE78D
:102A880080220021464D5205EB690091134208D17E
:102A9800EB691343EB61EB6913400393039B012339
:102AA80000938027414E7F0033683B4206D0A368DD
:102AB800012B13D12A6A13432B6230E033683B435E
:102AC8003360FFF7E3FE019033683B42EFD1FFF735
:102AD800DDFE019BC01A6428F6D940E70122002BCD
:102AE80014D12B6A022793432B622B6A0332934338
:102AF8002B62FFF7CBFE06002B6A3B4216D0FFF78E
:102B0800C5FE2B4B801B9842F6D928E7052B16D11A
:102B1800296A013B0B432B622B6A1A432A62FFF78F
:102B2800B5FE022706002B6A3B420FD0009B012B03
:102B380000D0C5E6EB691F4A1340EB61C0E62B6A7B
:102B4800934304222B622B6A9343B5E7FFF79EFE5B
:102B5800174B801B9842E6D901E7FFF797FE801BC9
:102B6800022800D8BFE6FAE6053203D16A6B9A4319
:102B78006A63BCE66A6B0227134301226B636B6BC3
:102B880093436B63FFF782FE06006B6B3B4200D1F9
:102B9800B4E6FFF77BFE801B0228F6D9DFE6C046C5
:102BA80000100240FFFFFEFFFFFFFBFF0070004028
:102BB80088130000FFFFFFEF0C22264D01206B68F1
:102BC8001340082B00D1B3E62B68234A13402B602F
:102BD80002292FD1FFF75AFE80270600BF042B6871
:102BE8003B4221D10F22EB6A80269343E26AB60466
:102BF8001343EB62616AA36A6A680B4317490A4088
:102C080013436B6080232A685B0413432B60FFF730
:102C18003DFE04002B68334200D073E6FFF736FE12
:102C2800001B0228F6D99AE6FFF730FE801B02281F
:102C3800D5D994E6FFF72AFE80260400B6042B684F
:102C4800334200D15EE6FFF721FE001B0228F6D9C9
:102C580085E6C04600100240FFFFFFFEFFFFC2FFEF
:102C6800F7B501223E4D04002B680F0013408B423C
:102C780012D32268930719D4D3071FD401232A68D3
:102C88001A40BA425DD823685B0761D4E122354B0C
:102C9800D20300201A6008E02B6893430B432B6093
:102CA8002B6813408B42E4D00120FEBDF0202E4952
:102CB8004B688343A06803434B60DDE72A4E626894
:102CC8003368012A1AD19B03EED5032173688B431D
:102CD80013437360FFF7DAFD63680190012B15D188
:102CE8000C2273681340042BC8D0FFF7CFFD019B5B
:102CF800C01A1E4B9842F3D90320D6E7022A02D104
:102D08009B01E2D4D0E79B07DFD4CDE7022B12D09A
:102D18000C2273681342B1D0FFF7B8FD019BC01AAB
:102D2800124B9842F4D9E7E7FFF7B0FD019BC01AB0
:102D38000E4B9842E0D80C2273681340082BF3D14D
:102D48009CE72A689A432A602A681A429BD0ABE714
:102D5800054A074953680B40E1680B43536095E700
:102D680000200240000000200010024088130000EC
:102D7800FFF8FFFF0023F0B587B00A681400DC40B5
:102D880001D107B0F0BD012614009E4034400294E2
:102D9800324200D192E04A68150001921022954310
:102DA8000395022D0DD107240F251C40A400A54032
:102DB800DA0892008218176AAF430D69A5402F43BD
:102DC800176203225C00A240D543AC46032507687E
:102DD8009743019A2A40A240039D3A43013D02606D
:102DE800012D0FD8624685681540CA68A2402A435B
:102DF80082604568019AB5430126120932409A401B
:102E08002A4342606546C2682A408D68A5408024EE
:102E18002A43C260019A640522424FD00125284AFC
:102E280090279469FF052C43946192699C082A4075
:102E38000592059A234AA400A4180F2202351D40C2
:102E4800AD00AA40A66896430022B8420CD01E4F97
:102E58000132B84208D01D4F0132B84204D01C4F8D
:102E68000132B84200D00232AA403243A260194A65
:102E7800029C1668029D019FE4433543FF0301D479
:102E88003500254015605668029D019F3543BF03F4
:102E980001D43500254055609668029D019F354351
:102EA800FF0201D4350025409560D568029E019F38
:102EB8002E43BF0201D425402E00D66001335CE7C3
:102EC80000100240000001400004004800080048CB
:102ED800000C004800040140002A01D081617047BD
:102EE8008162FCE7F8B504000D0017001E00226897
:102EF800D3692B405B1B59424B41BB4201D0002098
:102F080018E0069B0133F3D0069B002B13D12368EE
:102F18000C491A6803200A401A609A68A331FF31E5
:102F28008A439A6022002023693213705370002369
:102F380068342370F8BDFFF7A9FC069B801B9842F4
:102F4800D5D9E4E75FFEFFFF030070B59A681D69F5
:102F580004682A435D69C1692A432068334D0A43DE
:102F6800284002432260626831481D6A0240D868DE
:102F7800024362609A69A0682A432E4D28400243A2
:102F880003208025A2602C4A2D02126B0240013AD0
:102F9800022A43D82948805CA94220D108281BD896
:102FA800FDF73AF93E1A051A3E1A1A1A1500596819
:102FB800234B4808C018FDF739F983B200201900DF
:102FC8000F221B0791435B0F0B43E36070BD5968E9
:102FD800802348085B02EDE701200023EFE708287B
:102FE8001AD8FDF719F90F1905190F19191914002D
:102FF8005968144B4808C018FDF718F980B2E0600A
:103008000020E3E75968E1234808DB03F3E7596840
:10301800802348081B02EEE70120D7E7A942F1D137
:103028005968E12348081B04C4E7C046F369FFFF59
:10303800FFCFFFFFFFF4FFFF00100240E832000857
:103048000048E8010024F40070B5041E01D10120F5
:1030580070BD050069352B78DAB2002B02D1030068
:1030680068331A70242301262B7022682000136805
:10307800B3431360FFF768FFB042E8D023680A49FA
:103088005A6800200A4008215A609A688A439A6060
:103098001A68164322001E602023E0666A326834EC
:1030A8002B7013702070D3E7FFF7FFFFF0B585B0E2
:1030B800039303006A3317001A7804000D000220F6
:1030C800202A39D10138002936D0002F34D0802267
:1030D800A1685201914204D12269002A01D1054216
:1030E8002AD12200683211780220012924D0012136
:1030F80011700022E26622321A70FFF7C7FB230024
:103108008021A26858331F805F800600490104337C
:103118008A4215D12269002A10D11E4A1A801F88B6
:1031280022005A32138898B2002B10D12300202293
:103138006A3368341A70207005B0F0BDFF22EDE7DD
:10314800002AECD12269002AF8D07F22E6E713880A
:103158002021013B9BB21380039B00220093200097
:103168003300FFF7BFFE002812D18021A268236830
:1031780049018A4207D12269002A04D19B8C3B402D
:103188002B800235CCE79B8C3B402B700135C7E781
:103198000320D1E7FF010000F0B585B003930300D9
:1031A800693302931B7804000D0016000220202BBF
:1031B80048D10138002945D0002A43D08023A2688D
:1031C8005B019A4204D12369002B01D1014239D114
:1031D800230068331A780220012A33D001221A709A
:1031E8000023029AE36621331370FFF74FFB230095
:1031F80050331E805E808026070076012100523100
:103208000B889AB2002B0ED1039B4021009320001B
:103218003B00FFF767FE002813D12023029A683489
:10322800137020700EE00B880022013B9BB20B80CC
:10323800039B8021009320003B00FFF753FE0028EA
:1032480002D0032005B0F0BDA3682268B34208D1BC
:103258002369002B05D12B880235DB05DB0D13858F
:10326800CCE72B7801351385C8E70000002103E07F
:103278000B4B5B58435004310A480B4B42189A4297
:10328800F6D30A4A02E0002313600432084B9A423C
:10329800F9D300E000BFFDF73FF9FFF795F8FEE727
:1032A800B8350008000000206800002068000020F1
:1032B8000C020020FEE70000F8B5C046F8BC08BCC8
:1032C8009E467047F8B5C046F8BC08BC9E46704795
:1032D8003031323334353637383941424344454644
:1032E800040802000800002012100008160F000849
:1032F800160F0008160F0008160F0008160F000812
:10330800160F0008160F0008160F0008160F000801
:10331800160F0008720F00082A0F0008160F000881
:10332800160F0008160F0008160F00082A0F0008CD
:10333800160F0008160F0008160F0008160F0008D1
:10334800860E00084E0F0008A80F0008160F000888
:10335800160F0008880F0008160F00084E0F000807
:10336800160F0008160F00082C10000800000000B7
:103378000000000000000000000000000000000045
:103388000000000000000000000000000000000035
:103398000000000000000000000000000000000025
:1033A8000000000000000000000000000000000015
:1033B8000000000000000000000000000000000005
:1033C80000000000000000000000000057524F4EAF
:1033D800472050415353574F5244004143434553AC
:1033E80053204752414E5445440055534643534594
:1033F800002A2A2A2A2A536166652D6F2D6D617469
:103408006963203330303020426F6F74696E672EE5
:103418002E2E0A00416C69676E696E6720626974B6
:10342800732E2E2E2E2E2E2E2E5B444F4E455D0AC9
:1034380000436865636B696E672043657369756DE2
:1034480020524E472E2E5B444F4E455D0A004D617B
:1034580073717565726164696E6720666C61736803
:103468002E2E2E5B444F4E455D0A004465637279EB
:103478007074696E672064617461626173652E2E71
:103488005B444F4E455D0A000A0A005741524E49B7
:103498004E473A20554E415554484F52495A454493
:1034A800204143434553532057494C4C2042452023
:1034B80050554E49534845440A00506C6561736540
:1034C80020656E7465722070617373776F72642003
:1034D800746F20636F6E74696E75653A2000000022
:1034E8005245454E54206D616C6C6F632073756353
:1034F80063656564656400002E2E2F2E2E2F2E2EF8
:103508002F2E2E2F2E2E2F2E2E2F2E2E2F2E2E2FCD
:103518006E65776C69622F6C6962632F7374646C73
:1035280069622F72616E642E630000002C2066753C
:103538006E6374696F6E3A200000000061737365F2
:103548007274696F6E2022257322206661696C652A
:10355800643A2066696C6520222573222C206C69E8
:103568006E65202564257325730A0000232D302BF2
:1035780020000000686C4C006566674546470000FF
:103588003031323334353637383941424344454691
:103598000000000030313233343536373839616253
:0835A800636465660000000089
:0435B000FD01000811
:0435B400D101000839
:1035B80000127A000800002000000000B433000860
:1035C8009433000874330008000000000000000075
:1035D80000000000000000000000000000000000E3
:1035E80000000000000000000000000000000000D3
:1035F80000000000000000000000000000000000C3
:1036080000000000000000000000000000000000B2
:083618000000000000000000AA
:040000050800327548
:00000001FF
